:020000040800F2
:10000000A8070020A52500082F0F0008310F0008C1
:1000100000000000000000000000000000000000E0
:10002000000000000000000000000000330F000886
:100030000000000000000000350F0008370F000826
:100040004B0F0008A30F00085B120008AF12000856
:100050002F160008471600084B1600084F16000818
:100060001B1D00080000000063250008C5250008CE
:10007000C7250008C9250008CB250008CD250008A4
:10008000CF250008DD180008D1250008D325000879
:10009000AD230008D5250008D7250008D92500087C
:1000A000DB250008DD250008DF250008E125000824
:1000B000E3250008E5250008FF170008E7250008EC
:1000C000F0B5A1B0269C049102A93B254C55002710
:1000D0000D970190140000930AE00498019A90474C
:1000E0000490002800D1A3E00D98401C0D90641CE2
:1000F0002178002909D02529EFD10797089709977A
:100100000A970B970C97002104E00D9892E00800E5
:1001100001210143641C20782028F8D023280CD02A
:100120002B2804D02D2805D0302809D084E00800E1
:100130000221EEE708000421EBE708000821E8E7C8
:1001400008001021E5E70F970AE00F9A444B9A4206
:1001500005DA93009A185200101830380F90641C7A
:1001600020780200303A0A2AEFD320782E2803D0D4
:100170000020C0430E9028E0641C20782A280AD171
:1001800000980068009A10600268001D009B1860CB
:100190000E92641C19E02D2802D12D22641C00E06F
:1001A00000220E970CE0002A09D10E9B2C4DAB4289
:1001B00005DA9D00EB185B00181830380E90641CAF
:1001C00020780300303B0A2BEDD302AD2987267837
:1001D000310000BF23A000F0AFFE002801D0641C56
:1001E00000E000263A202E54285C682804D12078AC
:1001F00068280AD1622005E06C2806D120786C2896
:1002000003D171203A216854641C12A80690237807
:10021000009A02A9019800F063F8641C002807D135
:1002200012AA02A9019800F0B3F9002800D45FE7F0
:100230000020C04321B0F0BD2A2884D10098026874
:1002400002601068121D009B1A600F90002804D5F0
:1002500042420F92080004210143641C85E700001C
:10026000CBCCCC0C686A6C747A4C00000B00622812
:100270001CD068280DD06A2803D06C2823D07128A0
:1002800021D11A68D21D072082431A6003CA1A605E
:100290007047002A19681960086803D0091D1960A1
:1002A00000B217E0091D196080B217E0002A196832
:1002B0001960086803D0091D196040B20AE0091DE1
:1002C0001960C0B20AE0002A19681960086803D0F2
:1002D000091D1960C1177047091D19600021704779
:1002E00070B50C0011001E0025693000253800D1C2
:1002F00016E11C3868D0001F022865D9133842D097
:10030000093861D0801E16D0401E1ED0401E022823
:100310005AD9001F19D0401F00D17EE0401E32D0B4
:10032000401E00D1C9E0C01E00D1D7E0801E2AD0F7
:10033000C01E28D0FAE06069421C62610A680A6047
:100340001368121D0A602B54FAE001223A20205C47
:10035000FFF78CFF03C4083C002904DA6069411CE4
:1003600061612D210DE0208F810704D56069411C5A
:1003700061612B2105E0C00721D56069411C6161E5
:10038000202129541BE000223A20205CFFF76EFF59
:1003900003C4083C3820205C000710D503CC083C7F
:1003A000002901D100280AD020203043782806D126
:1003B000606930212954401C411C61612E546069E0
:1003C0002818E060310085E00868C01D07229043CE
:1003D00008600CC808600CC4083C03CC083CC80F7B
:1003E00004D06069411C61612D210DE0208F8107DF
:1003F00004D56069411C61612B2105E0C00704D56B
:100400006069411C61612021295460692818E060FD
:100410003100200000F0FCF992E03B20205C002835
:1004200004D00024E44300BF46A062E03A20205CF0
:10043000622808D0682823D06A2812D06C282ED0D1
:1004400071280ED02BE00A680A601068121D0A603D
:10045000002803D10024E44340A04AE0E16A01708F
:100460006EE0086808600268001D0860002A03D179
:100470000024E44339A03CE0E06AC11703C25FE016
:100480000A680A601068121D0A60002804D100245E
:10049000E44300BF31A02CE0E16A018050E00A682B
:1004A0000A601068121D0A60002803D10024E4438A
:1004B0002AA01EE0E16A016042E008680860026864
:1004C000001D08600020C0430021104003C4083C08
:1004D000E5607821200000F0E5F831E00868086068
:1004E0000568001D0860E560002D06D10024E44386
:1004F00020A000F02BFD201A70BD266B002E03D526
:10050000280000F047FD09E032000021280000F03B
:1005100049FD002801D0401B00E03000A0610FE041
:100520006069411C61612521295409E06169481C09
:10053000606125226A54310002D0411C61612E5451
:10054000002070BD7072696E74665F733A20256E0C
:1005500020646973616C6C6F776564007072696E9A
:1005600074663A2062616420256E20617267756D41
:10057000656E74007072696E74665F733A206261B2
:100580006420257320617267756D656E74000000CC
:10059000FEB506000D001700686B6969401A296AEC
:1005A000401AA969401A696A401AE969401AA96A99
:1005B000401A01903820285C400710D4202069465A
:1005C0000870019800280ADD019C01236A46290071
:1005D000300000F091FC002860D1641EF5D13A0093
:1005E0006B692900300000F087FC002856D13027C5
:1005F000684607702C6A002C09DD01236A46290031
:10060000300000F079FC002848D1641EF5D1AB69B8
:10061000EA682900300000F06FFC00283ED16846EF
:1006200007706C6A002C09DD01236A46290030003E
:1006300000F062FC002831D1641EF5D1EB69E86856
:10064000A96942182900300000F056FC002825D185
:1006500068460770AC6A002C09DD01236A46290050
:10066000300000F049FC002818D1641EF5D1382074
:10067000285C400710D520206946087001980028A2
:100680000ADD019C01236A462900300000F034FC99
:10069000002803D1641EF5D1002001E00020C043F2
:1006A00003B0F0BDF2B586B0040025696F2901D111
:1006B000082707E0084620210143782901D00A27AE
:1006C00000E010273C2603CC083C04AA03C26A467B
:1006D000127E642A03D06A46127E692A09D1002953
:1006E00007DA04A803C800220023121A8B4104A8C9
:1006F0000CC004A803C8002920D100281ED1206BFB
:1007000000281BD1082F4ED13820205C00074AD585
:100710003B26302046E000290ED53821615C1422AA
:100720000A40102A08D1616B6269891A226A891A03
:10073000081A002800DD206207B0F0BD0294009581
:1007400004A830C8761E0196200029003A00FB1745
:1007500000F033FC3032D0B23A2803DB6846007E2A
:100760005138121800988255200029003A00FB17D2
:1007700000F023FC04000D0001D1002C05D00298EC
:10078000C068009989198842DCD3029C009D082F1B
:1007900009D13820205C000705D5A85D302802D09B
:1007A000761E3020A8553C20801BA061A919E1606D
:1007B000216B8842AFDA081A2062208F124901406B
:1007C0002187B9E7F8B50026104F04000D0000920C
:1007D00014E0C00707D532003B002000290000F0DC
:1007E00021FC04000D0000984010009030003900FA
:1007F00032003B0000F016FC06000F0000980028B5
:10080000E7D120002900F4BDEFFF000000002440E4
:10081000F3B593B005AA03C802AB03C314A80078CC
:10082000202101436846017061290BD01398006BA9
:10083000002801D5062003E004D1672902D1012058
:1008400013990863139803C84C006415641C13D1F2
:100850000B0311D003201399886114A80078613824
:100860001A2804D255497944FF31533116E05449CE
:100870007944FF314D3111E04C006415641C13D1F3
:100880000B0311D103201399886114A800786138F3
:100890001A281BD34B497944FF312B31032213987B
:1008A000C06800F09BFCC2E110AB03C38CA6C0CEB5
:1008B00010A803C8394080256D03A9420BD200233C
:1008C000019310AB30CB604069400EE03E49794463
:1008D000FF310939E2E7080D834C2418019410A870
:1008E00003C8834D0D4081492943139B03C36846C8
:1008F0000078612813D11398C06830210170811CE1
:10090000139BD96014A90978612901D1782100E0ED
:100910005821417013984069801C139948611398BD
:1009200030C826402F4005D1002E03D100206B4651
:10093000188173E168460078612800D0A8E0139818
:10094000006B002801D5212000E0401C0090009F92
:100950007F1C02A803C80022002300F04CFC02D236
:100960008020000645400198001F019069460A75E5
:1009700005A8461C002F00DC5FE1200029000022B2
:1009800080235B0300F050FC00D956E169004A0D5A
:1009900011001C31002A19D0002917DDB24A9142FA
:1009A00006DB10052900802212061140014311E0E8
:1009B0004F4A2A400805104305000DE0D81B0000EF
:1009C000D81B0000DC1B0000D41B00002900802283
:1009D0001206114000240D002000290000F03EFC0A
:1009E0000290FF1F002F09DD00F072FC02000B00D7
:1009F0002000290000F0D3FC04000D00F01D0721A9
:100A0000029A04E0401E13071B0F03701211002A04
:100A100001DD491EF6D5491E00D50AE1401E00221F
:100A20000270F8E70023040005AD2D1901E0401E17
:100A30006D1E641E2E789E42F9D00F2B04D14B1CE4
:100A40001B5D5B1C491C0B55002C04D505AA401CE2
:100A50000199091D0191431E11D4D41814A90978D4
:100A600025783035EEB23A2E02DB0E003A3EAD1953
:100A700025705B1E641E002BF2D514AB1970139900
:100A8000096B002900D4C6E0411E139B1963C2E024
:100A900002A830C86D006D08019874494843744934
:100AA00000F00AFD019007200199401A029005DD2F
:100AB000024620002900FFF785FE0AE0424200209E
:100AC0006C49FFF77FFE02000B002000290000F0B8
:100AD0004DFD6A461278662A0CD1019A0A320AE064
:100AE000FFFFFFFFFFFFFF7F02FCFFFF0000E03F73
:100AF000FFFF0F800622139B1B6B9A18142A00DD40
:100B0000142230236C46237505AB5C1C02E002A85E
:100B100003C8049A002A3CDD02AB03C3049202A876
:100B200003C800F0ADFB0F900646083404253000E2
:100B30000A2100F0C4FC0F0030000A2100F0BFFCC5
:100B400006003037601E077030000A2100F0B7FC45
:100B50000F0030000A2100F0B2FC0600A41E30375E
:100B600027706D1EE3D108340498083804900028DB
:100B7000CDDD0F9800F09CFB02000B0002A803C81B
:100B800000F00DFC00223C4B00F04CFA02AA03C21C
:100B9000C5E705A8401C211A05A8421C019802E0DF
:100BA000491E401E521C1378302BF9D00190684624
:100BB0000078662802D10198401C06E0684600785B
:100BC000652801D1012000E00020139B1B6B181841
:100BD000814200DA481E00281DD4884204DA115CE4
:100BE000352901DB392300E030230400511E0D19A3
:100BF00001E0401E6D1E641E2E789E42F9D0392BF6
:100C000002D1135D5B1C1355002C04D50A00401C57
:100C10000199491C019169460881019800B2009030
:100C2000029B1BB214A80178139800F027F815B0A6
:100C3000F0BDC61D002F00DD9FE605A9481C331A34
:100C400005A8421C0098834200DC1800002800D54B
:100C500015E7984200DBE5E64B1C1B5C072B00DC2C
:100C6000E0E60F23DFE60000FF07000097750000B5
:100C7000A08601000000F03F84D79741F6B583B00D
:100C800006000F001C0000F0D3FC406A00786946A3
:100C90000870356B002C03DC012400BFA3A0049076
:100CA00020203843662803D10A9F3FB27F1C1AE0F8
:100CB000672800D085E00A9800B20321C943884222
:100CC00000DA82E0A84200DB7FE00A9F3FB27F1C8F
:100CD0003820305C000702D4AC4200DA250038B27C
:100CE0002D1A00D50025B169F06840183AB2002AE3
:100CF00026DC491C30220270002D03DC3820305CD9
:100D0000000704D568460078F2685054491CB16168
:100D100038B241428D4200DA6F423FB2784270628F
:100D2000ED19A54200DA2C0024B2F46122000499E6
:100D3000F068B369C01800F051FA281BB062C3E034
:100D4000944218DA2200049900F048FAB0690019B8
:100D5000B0613FB2391B7162002D03DC3821715C38
:100D6000090706D569460978F2681154F069401CF4
:100D7000F061B562A8E0049900F030FA38B2B169C8
:100D80000918E41B002D03DC3822B25C120704D5DD
:100D90006A461278F3685A54491CB16121B28D42F7
:100DA00000DA2C0022B204990918F068B369C0185F
:100DB00000F014FA24B2B0690019B061281B706207
:100DC00082E0612F11D1702712E0AC4204DA3821A1
:100DD000715C090700D425006D1E00D50025672F22
:100DE00001D1652704E0452702E0412F00D15027BB
:100DF000B069411CB161049A1278F3681A540498DE
:100E0000401C0490002D03DC3820305C000718D50E
:100E1000481CB0616A461278F3685A54002D10DD00
:100E2000641E21B28D4200DA2C0022B20499F368CC
:100E3000181800F0D3F924B2B0690019B061281B6A
:100E40007062F068B169401807700A9909B2002908
:100E500004D42B214170801C049006E02D224270A6
:100E6000801C049048426946088500246D460A9813
:100E700000B205E00A2100F01FFB2970641C6D1C04
:100E800000B20028F6DC012C09DC2020384365285C
:100E900005D13020049908700498401C0490002C5F
:100EA00028D13020049908700498401C07E0641E83
:100EB0006946095D30310170401C002CF7DCF16897
:100EC000B2698918401AF0613820305C1421014061
:100ED00010290DD17069B1694018716A4018F16923
:100EE0004018B16A4018716B884201DA081A306202
:100EF00005B0F0BD0498E0E7F8B50024002B13D04E
:100F000007000E0014001D002178B068B847B060DB
:100F1000002807D0F06A401CF062641C6D1EF3D1FB
:100F2000002401E00024E4432000F2BD30007047BB
:100F3000FEE7704770477047C9B202788A4203D013
:100F4000401C002AF9D100207047FEE780B5002838
:100F500001D100BF07A006490B68002B03D0222255
:100F60000021984701E000F069FB222002BD00004B
:100F70009C030020636F6E73747261696E742068E5
:100F8000616E646C65723A20626164206D65737392
:100F900061676500431C0178401C0942FBD1C01AFF
:100FA0007047FEE7C9B2521E05D30378401C8B423E
:100FB000F9D1401E704700207047124224D0994258
:100FC00028D970B500251B4202D00C00002109E091
:100FD0000024012649186441944200D3A41A7641A2
:100FE000F8D33100012601E0764109D200186441AE
:100FF0006D41A41A9D41F7D2A4185D41B619F5D3ED
:10100000300022002B0070BD1B42D8D108B500F083
:101010001BFB08BD01D19042D3D202000B0000217E
:1010200000207047F0B50E005E400125ED072E4010
:10103000B446AE0ADF184C18F44208D2F7420ED27A
:10104000640D01D07F0D12D100206146F0BD05D1A5
:10105000F74201D87F0D05D10020C143F0BDFBD17F
:10106000640DF9D00020C143490549088FE0E41917
:10107000C902DB0229432B43DB0A460DC002314380
:101080008E4630B487B295B27D432E0CADB2140CAF
:101090007C43A419260C240425439CB27C43A41948
:1010A000190C7943270CC919A4B20F043C43090C4D
:1010B000000C97B247432E0CBE193543ADB2170C46
:1010C0004743360CBF19A6B2BF193E043543240C62
:1010D0003E0C36199FB24743BF19BCB23E0C89196A
:1010E0001F0C47437F183E043443390C704680B2CE
:1010F00097B247432E0CBE193543ADB2170C474388
:10110000360CBF19A6B2BF193E043543240C3E0C61
:1011100036199FB24743BF19BCB23E0C89191F0C48
:1011200047437F183E043443390C77463F0C90B256
:1011300078432E0C80190604ADB22E43050CA0B2E4
:101140002D18120C7A435019020C80B2240CA418EA
:101150009AB27A43121914042043120C89181B0CFA
:101160007B43C91830BCEF0A394203D1B61940415C
:101170004941641E6F12BF0DE41B0BDBFF19BC421B
:1011800011DA240500274208AE41784161416646E4
:101190003143F0BD641C05D1401C6141CF0201D335
:1011A0004908F4E750E75DE770B4103A03D378C913
:1011B000103A78C0FBD2530701D318C918C001D523
:1011C00008C908C0D20704D30B880380891C801C7F
:1011D000002A01D50B78037070BC70478B0701D1D2
:1011E0008307E1D0124205D00B78491C0370401CE4
:1011F000521EF9D1704730B4012464054D00EC4211
:101200000BD85D00EC4208D80C001C43640004437A
:10121000144304D2994200D1904230BC7047FCD0B4
:101220008B42FAD18242F8E730B4012464054D00C4
:10123000EC420BD85D00EC4208D80C001C43640063
:101240000443144304D28B4200D1824230BC704725
:10125000FCD09942FAD19042F8E7FEE7F4464A18EA
:1012600005D200F00FF801D580174008604700F064
:1012700009F80121C907884200D9080040426047A7
:101280004A1812D2400DC90208430121C907084378
:10129000520D40210901521A521C06D452421F32EB
:1012A00001D4D0407047C017704700207047FEE758
:1012B000010042221201D21E004207D002D4521E67
:1012C0000018FCD5C10A40051205891870470000B6
:1012D0000100EED54042F446FFF7EBFF0122D207B2
:1012E000114360478B4200D1824205D984461000E9
:1012F00062468C4619006346DF184C18640D7F0D5A
:101300003AD0661C760537D0E61B352E34DCDB027E
:101310002B43DB0A0C0DC9022943C912202E0DDB19
:101320001700203E06D01F00F741F3405F40002623
:10133000012A7741C01871410DD217E01700F7411B
:10134000F2405740F3415A40B340F3405A40002620
:10135000801859410AD3A21C52050FD0C207012F91
:10136000724117004008CB0718434908641C240544
:101370004208AF4170416141F0BC7047641C2105D7
:101380000020F9E76B4010E06B40ABE7F742F3D188
:10139000E943F1E72442EFD100200021ECE7F0B46B
:1013A0000125ED070F005F40EED40C00871A9C4129
:1013B00005D2C01BA141D219634169406B40AE0AFE
:1013C000DF184C18F442E1D2640D7F0DE2D0E61B29
:1013D000362ED1DCDB022B43DB0AA4460C0DC902FE
:1013E0002943C90A012E28DC04D1D6075208DF0799
:1013F0003A435B08EF0A76429041994114D0394252
:101400003BD1B61940414941761C394204D1761C82
:10141000001849413942FAD0B9436746B74208D962
:10142000A41B24052143A7E70042EAD13642E8D1B4
:10143000A2E7E40AE10700209EE7202E0BDD203E14
:101440001F00F340F7415F40012A002257417E42CE
:10145000984191410BE01700F741F2405740F341AA
:101460005A40B340F3405A407E42904199410A03AA
:1014700003D2641EB619404149410027641E240569
:101480004208AE4178416141F0BC7047F446002803
:1014900004D4494200F013F840426047404200291A
:1014A00005D45FD000F00BF8404249426047494202
:1014B00000F005F84942604703460B43E6D400229A
:1014C000030A8B420BD203098B4219D243088B4289
:1014D0002ED2411A00D20146524110467047FF22D7
:1014E00009023FD012068B4205D3121209028B4229
:1014F00001D31212090203098B4219D300E0090A31
:10150000C3098B4201D3CB01C01A524183098B42DC
:1015100001D38B01C01A524143098B4201D34B01C5
:10152000C01A524103098B4201D30B01C01A524128
:10153000C3088B4201D3CB00C01A524183088B42AF
:1015400001D38B00C01A524143088B4201D34B0098
:10155000C01A5241884200D3401A5241CFD20146AC
:101560001046704708B500F071F808BDF0B40E00E1
:101570005E400125ED072E40B446AE0ADF184C1838
:10158000F4423BD2F74241D2640D43D07F0D38D0B4
:10159000E41BC902DB0229432B43CF0ADB0A060006
:1015A000B61A9F4104D2641EB6197F41B6185F4136
:1015B0006812800D24180018844222DAE80C0021F9
:1015C000B6197F41B61A9F4102D2B6185F413F1C3F
:1015D00040414941F4D3241C21DD2405B6197F4143
:1015E000B61A9F4105D33743C60737430026012F5C
:1015F0007041614166463143F0BC7047FCD1F7420F
:1016000005D20020C14349054908F3E704D0002072
:10161000C143F1E77F0DFAD000206146ECE7244298
:10162000FAD1401C61410F03F6D30020E2E7FEE748
:1016300001487047000000009000002080B50120A4
:1016400000F006F801BDFEE77047FEE77047FEE7D1
:1016500080B500BF00BF024A11001820ABBEFBE7F7
:101660002600020078B58BB068461E210170002468
:101670002100417001252900817000F0A9F901A81D
:1016800000F075FA07A800F0D7FA2946A74800F03D
:10169000B7FB04200190022002900695AC4E01A9F0
:1016A000300000F0AFF908200190069501A9300044
:1016B00000F0A8F9E1204002079007A844600481E7
:1016C00084810C214181A34C07A9200000F076FA07
:1016D0002A46A149200000F0C6FA2946200000F061
:1016E000B6FA0CB070BD30B58BB0684611210170F0
:1016F00001210A004270817000F06AF901A800F02F
:1017000036FA07A800F098FA0121042000F078FBCF
:101710000121480400F07EFB80208000019002201F
:1017200002900A2406948A4D01A9280000F06AF963
:10173000280D0190069401A9280000F063F9E1202A
:1017400040020790002007A94860088188810C208A
:101750004881824C200000F031FA01227E492000AD
:1017600000F081FA0121200000F071FA0BB030BDC9
:10177000F8B50500774F784E00223100380000F0B0
:1017800072FA774CA078401CA0700122310038001A
:1017900000F069FA6078734902008D54401C607053
:1017A000C0B2FF2801D100206070F1BD6C48807884
:1017B000401E8041C043C00F7047F8B500200700AD
:1017C000674CA178002918D02178664A0B00D75CB5
:1017D000491C2170C9B2FF2900D120705D4E5E4DB9
:1017E00002462900300000F03EFAA078401EA070AA
:1017F00001222900300000F036FA3800F2BD10B5A1
:10180000544C5549200000F062FA002805D0200011
:1018100000F048FAC0B2FFF7ABFF10BDF8B5070003
:101820000E0000244B4D0CE02000C0B2395C2800B3
:1018300000F034FA8021280000F042FA0028F9D0A4
:10184000641C20003100C0B28842EDD3F1BDF8B570
:101850000500424F404E00223100380000F003FAEC
:10186000414CA078401CA07001223100380000F0EB
:10187000FAF960783D4902008D54401C6070C0B296
:10188000FF2801D100206070F1BD37488078401EEC
:101890008041C043C00F7047F8B500200700324CAC
:1018A000A178002918D02178304A0B00D75C491C58
:1018B0002170C9B2FF2900D12070284E264D024662
:1018C0002900300000F0CFF9A078401EA07001225E
:1018D0002900300000F0C7F93800F2BD10B51F4CE8
:1018E0001D49200000F0F3F9002805D0200000F089
:1018F000D9F9C0B2FFF7ABFF10BDF8B507000E0075
:101900000024164D0CE02000C0B2395C280000F025
:10191000C5F98021280000F0D3F90028F9D0641C13
:1019200020003100C0B28842EDD3F1BD0440000078
:1019300038B50400074D2100C9B2280000F0AEF907
:101940008021280000F0BCF90028F9D0200032BD29
:101950000008014000380140250500000044004017
:10196000A0030020C8000020A3030020C80100201D
:101970000121C006C00E81401E4801607047012150
:10198000C006C00E81401C480160704710B4C20000
:1019900018231340FF249C40E2438901C9B29940B7
:1019A00003000BD515481B071B0F083B9B089B002A
:1019B000C01803681A401143016007E010489B08F3
:1019C0009B00C01803681A401143016010BC7047A7
:1019D00010B50400617800202056FFF7D7FF0020E3
:1019E0002056A178002902D0FFF7C2FF10BDFFF7F3
:1019F000C6FF10BD00E100E080E100E01CED00E06A
:101A000000E400E0FCB40022030030E0052003E025
:101A10005E488342FAD10220A040304328606348E8
:101A20000568019EF44325404E68F60302D52E005A
:101A3000019D35430560456825404E68B60302D5D3
:101A40002E00019D35434560856825404E68F602AD
:101A500002D52E00019D35438560C5682C404D6838
:101A6000AD0202D52500019C2C43C460521C0C68B9
:101A70002000D04079D001200500954025400195F7
:101A8000019C002CF2D01400A4006D466C704C68D0
:101A9000022C01D0122C13D16C4664781C262640EF
:101AA0000F25B540EC434D69B540160704D55E6A75
:101AB000344025435D6203E01E6A344025431D62C5
:101AC0004D68012D05D0112D03D0022D01D0122D0E
:101AD00008D15C6806009640B4432D090540954046
:101AE00025435D601D68140064006E463470032653
:101AF0006C4624783700A740FC4325404F683E40A1
:101B00006F463F78BE402E431E60DD682C408D68D6
:101B10006E463678B5402543DD609D6806009640E8
:101B2000F4432540CE6896402E439E60DD6A2C40EB
:101B30000D6995402543DD624C68E40096D51C4C48
:101B40009508AD0065192E686C4667780C243C40FA
:101B50000F27A740BE430C4FBB4201D100205BE7DB
:101B6000144FBB4200D053E756E7F3BC704712490D
:101B700001600F2141610021416081600122C2604A
:101B800001617047000000000008014000100140A2
:101B90000200002012690A4000D0012070478161D4
:101BA000704742694A4042617047000000040140AA
:101BB00008000140000C0140FFFF0000F8B586B0AE
:101BC00004000D00208A3A490140E8880843208239
:101BD000A08938490140A8880843298901436889B8
:101BE0000843A081A08A34490140A8890843A08203
:101BF000684600F09BF82D48844201D1039800E02C
:101C000002981921484329688900FFF758FC05000C
:101C100064263100FFF753FC00010700000931463C
:101C20004843281A00013230FFF749FC0007000F33
:101C30003843208107B0F0BD962189010160002161
:101C40008180C18001810C224281818170470029FD
:101C5000818904D0802292010A4382817047174A09
:101C60000A408281704710B40B00DBB25B0901248B
:101C7000C906C90E8C40012B01D10C3004E0022BA7
:101C800001D1103000E01430002A016802D00C436A
:101C9000046001E0A143016010BC7047C905C90D93
:101CA000818070478088C005C00D704700380140B2
:101CB000FFCF0000F3E90000FFFC0000FFDF0000A1
:101CC0000200002012880A4200D00120704770B440
:101CD000020000200B001D00EDB26D0901230C0075
:101CE000E606F60E1C00B440012D02D195892C4069
:101CF00006E0022D02D1158A2C4001E0958A2C4085
:101D00000D002D0A1900A94012881140002C02D0A4
:101D1000002900D0180070BC7047FEE737490A68F8
:101D2000424B13401843086070470000F0B50700AD
:101D3000324C2168F020000308402268C02189034A
:101D400011402268C026360416402268000CC01CD0
:101D5000374D6843090D491CFFF7B1FBB10D491C14
:101D6000FFF7ADFB060021682F4808408021C9011C
:101D7000401A05D0083805D00839401A05D007E0C8
:101D80003E6006E04800386003E02A48386000E022
:101D90003D602168F02008400209082A00D2002294
:101DA00027A03968825CD14079602368E022D200A4
:101DB0001A40120A825CD140B9602268E021890190
:101DC00011407A68C90A405CC240FA600F25A16AD6
:101DD000294078681EA2515CFFF771FB7861A06A08
:101DE000F8214900014030001DA209090D40690099
:101DF000515AFFF764FB3861F0BD00000410024047
:101E00000D4A0029116802D00843106070478143D1
:101E100011607047094A0029116802D00843106018
:101E2000704781431160704708C00000FFF8FFFF52
:101E300000127A0030750000181002401C10024099
:101E40000000000001020304010203040607080960
:101E500001020406080A0C10202020202020202047
:101E6000010002000400060008000A000C00100037
:101E7000200040008000000100010001000100017D
:101E800038B50025684605702C00FFF78FFC002848
:101E90001FD0FFF792FC694608706846007800F092
:101EA0004BF854487121415C002912D071214554EE
:101EB000C37900E0641C2100C9B2092909D24E4946
:101EC0002200D2B2D20089180A789A42F2D1486828
:101ED0008047FFF7DAFC002807D0FFF7DDFC6946F2
:101EE000087001216846FFF708FD31BD704700000A
:101EF0001FB5684641A11CC91CC009216846FFF7EF
:101F00008DFC1FBD704700001FB568463EA11CC96F
:101F10001CC009216846FFF781FC1FBD1FB568463C
:101F20003CA11CC91CC00C216846FFF777FC1FBDF3
:101F300070477047704770472E490A780B2A58D867
:101F400001A39B5C9F4400BF0C1A242E38424C54C2
:101F50005C6A788CFF284CD100200873012008703F
:101F60007047FF2845D1022008707047532840D1A0
:101F700003200870704743283BD104200870704745
:101F8000482836D1052008707047442831D10620F2
:101F900008707047C8710720087070478860082073
:101FA000087070478A68000210188860092008705D
:101FB00070478A680004101888600A20087070470B
:101FC0008A680006101888600B3848670CD00B2010
:101FD000087070470A7B8A185073087B401C08738E
:101FE000486F401E486704D100200870012071220C
:101FF00088547047C802002000000020090000003B
:10200000050000008100000009000000050000003C
:10201000830000000800000003000000013132339B
:1020200030B40468354A344B984204D0354DA84248
:1020300001D0904203D17025AC434D882C43304DE4
:10204000A84204D02500304C2C40CD882C4304609D
:102050008C8884850C880485984202D0294CA04243
:1020600001D10C7A0486012484820468984204D049
:10207000244DA84201D0904209D14D7A002D03D0C1
:102080002500D40C2C4302E02500204C2C4090422B
:102090000FD18D7A002D02D0950C254301E01C4D07
:1020A0002540CC7A002C02D0540C2C4301E0194C72
:1020B0002C40984204D0134B984201D0904209D151
:1020C0000B7B002B03D02300D40B1C4302E0230026
:1020D000114C1C4004604368904209D1497B00299F
:1020E00003D01900930D0B4302E019000B4B0B407A
:1020F000436030BC70470000002C014000040040E9
:102100000010004000340140FFFCFFFFFFF7FFFF1D
:10211000FFEFFFFFFFDFFFFFFF7FFFFFFFFEFFFF80
:102120000029016803D001220A430260704701229E
:10213000914301607047002A828902D01143818156
:1021400070478A438281704701858282704702000E
:10215000002013690B4092891140002B02D0002906
:1021600000D001207047CA430261704780B53548EE
:10217000016801220A4302604168334A0A40426012
:102180000168324A0A4002600168314A0A4002602E
:102190004168304A0A404260E0218901C162BF21A2
:1021A000090481602C48016810220A43026000F093
:1021B00001F801BD00212348026801231343036095
:1021C000026853081A00D207D20F491C002A03D113
:1021D000A022D2009142F3D101684A081100C90738
:1021E00000D1FEE71C4A11680323994311600221C4
:1021F00013680B431360426842604268184B1340F7
:1022000043604268174B134043604268C0239B02FF
:10221000134343600268CB051343036002689201D5
:10222000FCD5426807239A434260426811434160EB
:1022300041680A4A0A408021C9018A42F8D17047A0
:1022400000000000001002400000FF21FFFFF6FE2A
:10225000FFFFBFFFFFFF00FE0020024008C000009C
:10226000FFFF3FFFFFFFC0FEF8B586B001218C20C5
:10227000FFF7C6FD80200090012401942E4D694691
:102280002800FFF7BFFB4020009069462800FFF7B9
:10229000B9FB0094294F69463800FFF7B3FB0226CB
:1022A000009669463800FFF7ADFB20200090694694
:1022B0002800FFF7A7FB1020009069462800FFF7D1
:1022C000A1FB009669461E48FFF79CFB0094002086
:1022D000019069462800FFF795FB80212800FFF751
:1022E0005EFC40212800FFF75AFC21462800FFF73A
:1022F0004FFC1449087107B0F0BD13480178CA07B4
:1023000000D4704710B5FE220A4002700F480188C1
:10231000491C018089B2FA22920091420ADB002115
:102320000180054C80212000FFF73BFC402120006C
:10233000FFF737FC10BD000000080140001C014001
:10234000000C01409003002098030020A603002009
:1023500018B585B068461421017001210A00427049
:102360008170FFF735FB0020FFF7D8FC012110201A
:10237000FFF750FD01A81649818000210A00026084
:10238000C280144C01A92000FFF74AFE012200215F
:102390002000FFF7D9FE012211462000FFF7CBFEF7
:1023A00001212000FFF7BCFE06B010BD10B5094C9E
:1023B00001212000FFF7CBFE002808D001212000DA
:1023C000FFF7D1FE0448017801220A43027010BDD4
:1023D0007FBB0000001000409803002080B5FFF78D
:1023E00043FFFFF73FF9FFF77EF9FFF7B1FF00BFAB
:1023F0000FA200BF0BA100BF03A000F025F80C2125
:102400000EA0FFF77AFA01BD4275696C6420446141
:10241000746120616E642054696D653A20257320D3
:10242000257300004665622032322032303233009C
:1024300032313A32313A30380000000044454255DA
:1024400047205541525421000EB4C0B5020003A8E4
:1024500001900020009001AB0121044878440C3029
:10246000FDF72EFE029906B0084700BF03010000E9
:1024700070B40123002413E00168001D194202D04A
:102480004D466D1E49190C60091D121F042AFAD20F
:102490000D00960701D50C80AD1C1A4000D02C70A1
:1024A0000268001D002AE7D170BC704730B40122D9
:1024B0000168001D00290FD00368C3184468083064
:1024C000144202D04D466D1E64191D6825601B1D07
:1024D000241D091FECD0F8E730BC704710B5074940
:1024E00079441831064C7C44163404E0081D0A680F
:1024F000891888470100A142F8D110BD08000000EA
:10250000280000006DFFFFFFE0020000C80000206F
:102510000000000099FFFFFFC8000000CC00000091
:10252000000000200000000000F00DF8002801D09D
:10253000FFF7D4FF00BF00BF002000BF00BF00F0C6
:1025400004F800F00AF80120704780B5FFF746FF55
:10255000FFF7D3FEFFF794FCFAE780B500F002F82E
:1025600001BDFEE707463846FFF772F8FBE738B5CE
:1025700005000C00200000F005F8A04200D0002566
:10258000280032BD80B50249FFF7D2F902BD00BF75
:10259000480000206E616E004E414E00696E66007C
:1025A000494E460001488047014800476D21000818
:1025B000B525000800BF00BF00BF00BFFFF7B4FF94
:1025C00000002E00FEE7FEE7FEE7FEE7FEE7FEE77F
:1025D000FEE7FEE7FEE7FEE7FEE7FEE7FEE7FEE7D3
:1025E000FEE7FEE7FEE7FEE781000000ED1E0008C3
:1025F00001000000F11E000883000000051F000814
:1026000003000000091F0008880000001D1F0008CB
:1026100089000000311F00088A000000331F0008F5
:102620008B000000351F00088C000000371F0008D9
:102630000204010140030020900300204003002019
:1026400040030020000000004003002000000000C4
:102650008C00002078000020000000000000000036
:10266000000000000000000000000000000000006A
:102670000000000000000000C0250008C025000880
:10268000C0250008C0250008C0250008C025000896
:10269000C0250008FFFFFFFFFFFFFFFFC225000866
:1026A000C0250008C0250008FFFFFFFFFFFF000056
:04000005080025B515
:00000001FF
